{
  "contractName": "Test",
  "abi": [
    {
      "inputs": [],
      "stateMutability": "nonpayable",
      "type": "constructor"
    },
    {
      "inputs": [],
      "name": "foo",
      "outputs": [
        {
          "internalType": "string",
          "name": "",
          "type": "string"
        }
      ],
      "stateMutability": "view",
      "type": "function"
    },
    {
      "inputs": [],
      "name": "setFoo",
      "outputs": [],
      "stateMutability": "nonpayable",
      "type": "function"
    }
  ],
  "bytecode": "0x608060405234801561001057600080fd5b5061055a806100206000396000f3fe608060405234801561001057600080fd5b5060043610610053576000357c010000000000000000000000000000000000000000000000000000000090048063c298557814610058578063fb3ab0da14610076575b600080fd5b610060610080565b60405161006d91906101e5565b60405180910390f35b61007e61010e565b005b6000805461008d90610236565b80601f01602080910402602001604051908101604052809291908181526020018280546100b990610236565b80156101065780601f106100db57610100808354040283529160200191610106565b820191906000526020600020905b8154815290600101906020018083116100e957829003601f168201915b505050505081565b6040518060400160405280600381526020017f6261720000000000000000000000000000000000000000000000000000000000815250600090816101529190610452565b50565b600081519050919050565b600082825260208201905092915050565b60005b8381101561018f578082015181840152602081019050610174565b60008484015250505050565b6000601f19601f8301169050919050565b60006101b782610155565b6101c18185610160565b93506101d1818560208601610171565b6101da8161019b565b840191505092915050565b600060208201905081810360008301526101ff81846101ac565b905092915050565b7f4e487b7100000000000000000000000000000000000000000000000000000000600052602260045260246000fd5b6000600282049050600182168061024e57607f821691505b60208210810361026157610260610207565b5b50919050565b7f4e487b7100000000000000000000000000000000000000000000000000000000600052604160045260246000fd5b60008190508160005260206000209050919050565b60006020601f8301049050919050565b60008160020a8302905092915050565b6000600883026102fb7fffffffffffffffffffffffffffffffffffffffffffffffffffffffffffffffff826102bb565b61030586836102bb565b95508019841693508086168417925050509392505050565b6000819050919050565b6000819050919050565b600061034c6103476103428461031d565b610327565b61031d565b9050919050565b6000819050919050565b61036683610331565b61037a61037282610353565b8484546102cb565b825550505050565b600090565b61038f610382565b61039a81848461035d565b505050565b5b818110156103be576103b3600082610387565b6001810190506103a0565b5050565b601f821115610403576103d481610296565b6103dd846102ab565b810160208510156103ec578190505b6104006103f8856102ab565b83018261039f565b50505b505050565b60008160020a8304905092915050565b600061042960001984600802610408565b1980831691505092915050565b60006104428383610418565b9150826002028217905092915050565b61045b82610155565b67ffffffffffffffff81111561047457610473610267565b5b61047e8254610236565b6104898282856103c2565b600060209050601f8311600181146104bc57600084156104aa578287015190505b6104b48582610436565b86555061051c565b601f1984166104ca86610296565b60005b828110156104f2578489015182556001820191506020850194506020810190506104cd565b8683101561050f578489015161050b601f891682610418565b8355505b6001600288020188555050505b50505050505056fea2646970667358221220ff5222dbfe91af376e4789ddfa15be4566ab282f1092c77eec4eb734e312b07964736f6c63430008130033",
  "immutableReferences": {},
  "source": "//SPDX-License-Identifier: MIT\npragma solidity ^0.8.0;\n\ncontract Test {\n    constructor() {}\n\n    string public foo;\n\n    function setFoo() external {\n        foo = \"bar\";\n    }\n}\n",
  "sourcePath": "/Users/pili/my/code/project/dwong/web3dev/packages/truffle/contracts/Test.sol",
  "compiler": {
    "name": "solc",
    "version": "0.8.19+commit.7dd6d404.Emscripten.clang"
  },
  "schemaVersion": "3.4.15",
  "updatedAt": "2023-08-13T05:13:14.757Z",
  "devdoc": {
    "kind": "dev",
    "methods": {},
    "version": 1
  },
  "userdoc": {
    "kind": "user",
    "methods": {},
    "version": 1
  }
}